:100000000C94F9000C9464090C9464090C94640930
:100010000C9464090C9464090C9464090C946409AC
:100020000C9464090C9464090C9464090C9464099C
:100030000C9464090C9464090C9464090C9464098C
:100040000C9464090C9464090C9464090C9464097C
:100050000C9464090C9464090C9464090C9464096C
:100060000C9464090C9464090C9464090C9464095C
:100070000C9464090C9464090C9464090C9464094C
:100080000C9464090C9464090C9464090C9464093C
:100090000C9464090C9464090C9464090C9464092C
:1000A0000C9464090C9464090C9464090C9464091C
:1000B0000C9464090C9464090C9464090C9464090C
:1000C0000C9464090C9464090C9464090C946409FC
:1000D0000C9464090C9464090C9464090C946409EC
:1000E0000C9464090200020680020602240012CC6D
:1000F0000C940F090C94290900407A10F35A00A0BF
:10010000724E18090010A5D4E80000E876481700E0
:1001100000E40B54020000CA9A3B000000E1F50520
:10012000000080969800000040420F000000A0866A
:1001300001000000102700000000E803000000009C
:100140006400000000000A00000000000100000040
:1001500000002C76D888DC674F0823DFC1DFAE595A
:10016000E1B1B796E5E3E453C63AE651997696E8ED
:10017000E6C28426EB898C9B62ED407C6FFCEFBC71
:100180009C9F40F2BAA56FA5F490055A2AF75C939C
:100190006B6CF9676DC11BFCE0E40D47FEF520E6D2
:1001A000B500D0ED902E0300943577050080841EB5
:1001B000080000204E0A000000C80C333333330F10
:1001C000986E12831141EF8D2114893BE65516CFAD
:1001D000FEE6DB18D1844B381BF77C1D901DA4BBB9
:1001E000E424203284725E228100C9F124ECA1E56E
:1001F0003D2711241FBECFEFD1E2DEBFCDBF00E00F
:100200000CBFE4EEF0E040E019C0B791A791379140
:100210002791079107FD0EC097918791EF01F92F64
:10022000E82F0BBF07900D92A217B307D9F7FE0175
:100230001BBE04C01D92A217B307E1F7E03FF4070D
:0E02400021F70E94F1050C942501F894FFCFE0
:10024E00566F6C746167653A202566302E316620D4
:10025E006D56200A00566F6C746167653A20253022
:10026E002E3166206D56200A0043757272656E74CB
:0C027E003A2025302E32662041200A0074
:08028A00696E66006E616E00F2
:100292002F923F924F925F926F927F928F929F9294
:1002A200AF92BF92CF92DF92EF92FF920F931F9382
:1002B200CF93DF93CDB7DEB764970FB6F894DEBF66
:1002C2000FBECDBF6C011A01462E5901FC011086EA
:1002D2001782848181FF67C3CE0101969D878C8737
:1002E200A0E88A8B9B8BAC8BF101542D0E944C09A8
:1002F200862F662309F453C3442D91012F5F3F4F8C
:100302004F4F653219F01901442E0BC0F901542FD9
:100312000E944C09862F92E0290E311C411C653245
:1003220049F4B60190E00E944908BF86AE86AE84C9
:10033200BF84DACF10E0F12C00E00032A0F48B325F
:1003420069F030F4803259F0833269F400612CC0D4
:100352008D3239F0803339F4016026C002600460C6
:1003620023C0086021C007FD2AC090ED980F9A3083
:1003720078F406FF06C0AAE01A9F900D1124192FE7
:1003820013C0EAE0FE9E900D1124F92E00620CC00B
:100392008E3221F406FD03C3006406C08C3611F4CC
:1003A200006802C0883659F4F101542D0E944C09AC
:1003B200862FFFEF2F1A3F0A4F0A6111BECF9BEB28
:1003C200980F933018F40061805E06C09BE9980F85
:1003D200933008F066C10F7E06FF16E00F73702E91
:1003E200853621F4202F2064722E08C0863621F42F
:1003F200802F8068782E02C01111115077FE07C03D
:100402001C3350F4EE24E394E10E27E00BC01830C5
:1004120038F027E017E005C027E06CE3E62E02C0C3
:10042200212FE12CF5013496FF87EE87F5016081DB
:100432007181828193810E2DAE014F5F5F4F0E94C9
:1004420019055C01598050FE02C053FE06C071FCC2
:1004520006C072FE06C000E205C00DE203C00BE258
:1004620001C000E0852D8C7019F0011174C2C0C268
:1004720077FE0FC0EA0C54FE04C08A81813309F46E
:10048200EA941E1474F528E02E1578F538E0E32E70
:100492002CC076FC2AC0812F90E08A159B059CF027
:1004A2008CEFA8168FEFB80674F0972D9068792E0E
:1004B2000AC0E2E0F0E0EC0FFD1FE10FF11D8081C8
:1004C200803319F411501111F4CF77FE0EC0EE24CF
:1004D200E394E10E812F90E0A816B9062CF41A19C4
:1004E20004C0EE24E39401C010E077FE06C01A14A3
:1004F2001B0434F4C501019605C085E090E002C0FA
:1005020081E090E001110196112331F0212F30E0BA
:100512002F5F3F4F820F931F2F2D30E082179307DB
:1005220014F4F81A01C0F12C872D897049F4FF20C8
:1005320039F0B60180E290E00E944908FA94F7CFC0
:10054200002329F0B601802F90E00E94490873FC35
:1005520009C0FF2039F0B60180E390E00E9449080B
:10056200FA94F7CF77FE49C03501B7FE02C0612C7D
:10057200712CC5018619970988248394912C8C0EBD
:100582009D1E880E991EF501EE19F109F98BE88B73
:10059200012F10E0119501951109FFEF6F167F06EB
:1005A20029F4B6018EE290E00E944908A614B7042D
:1005B20044F088899989861597051CF4F401818194
:1005C20001C080E3F1E06F1A71082FEF821A920ADC
:1005D200601671062CF0B60190E00E944908DDCF4A
:1005E200A614B70439F49A81963318F4953311F4AA
:1005F20054FE81E3B60190E051C08A81813319F043
:10060200952D9F7E592EB60190E00E944908111146
:1006120005C074FC1CC085E690E01BC0B6018EE2EA
:1006220090E00E94490802E0010F82E011E0180FF9
:10063200E1E0F0E0EC0FFD1FE80FF11D8081B60153
:1006420090E00E944908812F1013F0CFE2CF85E499
:1006520090E0B6010E944908B7FC05C0A114B1049C
:1006620039F454FE05C0B194A194B1088DE201C0E1
:100672008BE2B60190E00E94490880E3EAE0AE1600
:10068200B1042CF08F5FAAE0AA1AB108F7CFB60125
:1006920090E00E944908B601C501C0960E9449082F
:1006A20074C1833631F0833791F0833509F05EC02F
:1006B20024C0C50102969F878E87F50180818983B8
:1006C2006A887B888C88AA24A394B12C14C0C501A3
:1006D20003969F878E87F50160807180828006FF76
:1006E20003C0412F50E002C04FEF5FEF882DB301EE
:1006F2000E94A7085C010F7715C0C50103969F876A
:100702008E87F50160807180828006FF03C0412FD1
:1007120050E002C04FEF5FEF882DB3010E94A7089F
:100722005C01006803FD1EC08F2D90E0A816B9067B
:10073200C8F4B60180E290E00E944908FA94F4CF2E
:10074200F301582D0E944C09862FFFEF6F1A7F0A82
:100752008F0AB60190E00E944908F110FA9421E054
:10076200A21AB108A114B10459F70FC1843611F0CD
:10077200893679F5C50107FF09C004969F878E87E0
:10078200F50160817181828193810AC002969F87FF
:100792008E87F50160817181072E000C880B990B01
:1007A2000F76E02E97FF0AC090958095709561951F
:1007B2007F4F8F4F9F4FF02FF068EF2E2AE030E0EF
:1007C200AE014F5F5F4F0E94AE07A82E2C85A21A82
:1007D2004BC0853729F40F7EE02E2AE030E025C099
:1007E200902F997FE92E8F36C1F018F4883579F071
:1007F200D6C0803719F0883721F0D1C0A92FA06167
:10080200EA2EE4FE0DC0EE2DE460EE2E09C004FFD8
:100812000AC0F92FF660EF2E06C028E030E005C0CE
:1008220020E130E002C020E132E0C501E7FE09C06C
:1008320004969F878E87F501608171818281938101
:1008420008C002969F878E87F5016081718180E0E2
:1008520090E0AE014F5F5F4F0E94AE07A82EFC856D
:10086200AF1A2E2D2F77E22EE6FE0BC00E2D0E7F35
:10087200A11650F4E4FE0AC0E2FC08C00E2D0E7E62
:1008820005C0BA2C0E2D03C0BA2C01C0B12E04FF34
:100892000DC0FE01EA0DF11D8081803311F4097E45
:1008A20009C002FF06C0B394B39404C0802F8678B7
:1008B20009F0B39403FD11C000FF06C0BF1488F411
:1008C200FA0C1F2D1B190EC0BF1460F4B60180E292
:1008D20090E00E944908B394F7CFBF1418F4FB18B4
:1008E20002C01A2DF12C04FF10C0B60180E390E083
:1008F2000E94490802FF17C001FD03C088E790E08B
:1009020002C088E590E0B6010CC0802F867859F0CD
:1009120001FF02C08BE201C080E207FD8DE2B60159
:1009220090E00E944908A11638F4B60180E390E0F5
:100932000E9449081150F7CFAA94E1E0F0E0EC0FD1
:10094200FD1FEA0DF11D8081B60190E00E94490869
:10095200A110F2CF1AC0F4E0FF1588F584E0F81A6E
:1009620073FE24C001112CC053FE30C05EE8852EF8
:1009720052E0952E50E0A52E072D0071F4015A2D5C
:100982000E944C09862F611128C0FF2009F4CFCCA8
:10099200B60180E290E00E944908FA94F6CFF6018F
:1009A200878190852CC08FEF9FEF29C0B60180E22E
:1009B20090E00E944908FA94F110F8CFD3CFF12CBD
:1009C200B601802F90E00E944908CECF4AE8842EDB
:1009D20042E0942E40E0A42ECFCF01118052B60106
:1009E20090E00E944908FFEF8F1A9F0AAF0AC6CF14
:1009F20023E02F1510F483E0B2CFF12CB5CF64962B
:100A02000FB6F894DEBF0FBECDBFDF91CF911F911D
:100A12000F91FF90EF90DF90CF90BF90AF909F909B
:100A22008F907F906F905F904F903F902F9008959E
:100A3200283008F027E03327DA01990F311D87FDAE
:100A4200916000966105710539F432602E5F3D9325
:100A520030E32A95E1F708959F3F30F08038710521
:100A6200610509F03C5F3C5F3D93913008F080687E
:100A7200911DDF93CF931F930F93FF92EF92192F44
:100A8200987F9695E92F96959695E90FFF27EE5A4E
:100A9200FE4F99273327EE24FF24A701E701059093
:100AA2000894079428F4360FE71EF81E491F511DBB
:100AB200660F771F881F991F0694A1F70590079468
:100AC20028F4E70EF81E491F561FC11D770F881F15
:100AD200991F661F0694A1F70590079428F4F80E53
:100AE200491F561FC71FD11D880F991F661F771FE9
:100AF2000694A1F70590079420F4490F561FC71FCB
:100B0200D81F990F661F771F881F0694A9F7849133
:100B12001095177041F0D695C79557954795F7945C
:100B2200E7941A95C1F7E8EFF0E0689415901591F3
:100B320035916591959105907FE27395E118F10ADF
:100B4200430B560BC90BD009C0F7E10CF11E431F32
:100B5200561FC91FD01D7EF4703311F48A95E6CF5B
:100B6200E894015030F0080F0AF40027021708F445
:100B7200202F2395022F7A3328F079E37D932A954B
:100B8200E9F710C07D932A9589F6069497956795A3
:100B9200379517951794E118F10A430B560BC90BB9
:100BA200D00998F023957E9173957A3308F070E31B
:100BB2007C932013B8F77E9170617D9330F083951A
:100BC20071E37D9370E32A95E1F71124EF90FF9092
:100BD2000F911F91CF91DF91992787FD90950895ED
:100BE2000E94ED080E941E098FE180BB11BA8FEFAF
:100BF20087B910927C0088E080937B0087E880931D
:100C02007A0085E00E94C308BC0180E090E00E9467
:100C12000C0820E030E44CE950E40E945D099F9307
:100C22008F937F936F938EE492E0A0E0AF939F93B4
:100C32008F930E94D80886E00E94C308BC0180E01E
:100C420090E00E940C0820E030E44CE950E40E945D
:100C52005D09C62FD72F182F092F20E030E04AE771
:100C620054E40E94590926E031E845E95DE30E9417
:100C720031092BE83CE647EE5EE30E945909F62E65
:100C8200E72ED82EC92E0F931F93DF93CF9383E6BF
:100C920092E0A0E0AF939F938F930E94D808CF92E7
:100CA200DF92EF92FF9287E792E0A0E0AF939F93EB
:100CB2008F930E94D8082FEF83ED90E3215080405C
:100CC2009040E1F700C000008DB79EB745960FB681
:0A0CD200F8949EBF0FBE8DBF94CFB3
:100CDC0010C00E943E0958F00E94370940F029F4D8
:100CEC005F3F29F00C94530951110C9446090C9454
:100CFC0061090E94850868F39923B1F3552391F398
:100D0C00951B550BBB27AA2762177307840738F06E
:100D1C009F5F5F4F220F331F441FAA1FA9F335D0CB
:100D2C000E2E3AF0E0E832D091505040E695001C7F
:100D3C00CAF72BD0FE2F29D0660F771F881FBB1F39
:100D4C00261737074807AB07B0E809F0BB0B802D17
:100D5C00BF01FF2793585F4F3AF09E3F510578F043
:100D6C000C9453090C9446095F3FE4F3983ED4F37A
:100D7C00869577956795B795F7959F5FC9F7880F17
:100D8C00911D9695879597F90895E1E0660F771F69
:100D9C00881FBB1F621773078407BA0720F0621BFA
:0E0DAC00730B840BBA0BEE1F88F7E0950895C9
:100DBA000FC00E94370938F00E943E0920F095239F
:100DCA0011F00C9453090C94610911240C944609EE
:100DDA000E94850870F3959FC1F3950F50E0551F47
:100DEA00629FF001729FBB27F00DB11D639FAA2776
:100DFA00F00DB11DAA1F649F6627B00DA11D661FC5
:100E0A00829F2227B00DA11D621F739FB00DA11DE5
:100E1A00621F839FA00D611D221F749F3327A00D9F
:100E2A00611D231F849F600D211D822F762F6A2F3B
:100E3A0011249F5750409AF0F1F088234AF0EE0FA0
:100E4A00FF1FBB1F661F771F881F91505040A9F7CD
:100E5A009E3F510580F00C9453090C9446095F3F5C
:100E6A00E4F3983ED4F3869577956795B795F79509
:100E7A00E7959F5FC1F7FE2B880F911D9695879581
:040E8A0097F9089537
:100E8E0011C00E94370938F00E943E0920F039F453
:100E9E009F3F19F426F40C9461090EF4E095E7FBDC
:100EAE000C945309E92F0E94850858F3BA1762076C
:100EBE0073078407950720F079F4A6F50C9445097D
:100ECE000EF4E0950B2EBA2FA02D0B01B901900157
:100EDE000C01CA01A0011124FF27591B99F0593F9B
:100EEE0050F4503E68F11A16F040A22F232F342FE3
:100EFE004427585FF3CF469537952795A795F04031
:100F0E005395C9F77EF41F16BA0B620B730B840B45
:100F1E00BAF09150A1F0FF0FBB1F661F771F881FFD
:100F2E00C2F70EC0BA0F621F731F841F48F4879555
:100F3E0077956795B795F7959E3F08F0B0CF939547
:0E0F4E00880F08F09927EE0F97958795089564
:100F5C00FA01AA27283051F1203181F1E8946F93DE
:100F6C006E7F6E5F7F4F8F4F9F4FAF4FB1E03ED084
:100F7C00B4E03CD0670F781F891F9A1FA11D680F22
:100F8C00791F8A1F911DA11D6A0F711D811D911D55
:100F9C00A11D20D009F468943F912AE0269F1124CA
:100FAC003019305D3193DEF6CF010895462F47702E
:100FBC00405D4193B3E00FD0C9F7F6CF462F4F7089
:100FCC00405D4A3318F0495D31FD4052419302D0E7
:100FDC00A9F7EACFB4E0A69597958795779567958D
:100FEC00BA95C9F700976105710508959B01AC018D
:100FFC000A2E06945795479537952795BA95C9F7B4
:0C100C00620F731F841F951FA01D089524
:10101800E89409C097FB3EF490958095709561958A
:101028007F4F8F4F9F4F9923A9F0F92F96E9BB2740
:101038009395F695879577956795B795F111F8CFBC
:10104800FAF4BB0F11F460FF1BC06F5F7F4F8F4F27
:101058009F4F16C0882311F096E911C0772321F01D
:101068009EE8872F762F05C0662371F096E8862FB5
:1010780070E060E02AF09A95660F771F881FDAF70C
:0A108800880F9695879597F9089553
:101092000F931F93CF93DF93FB01248121FD03C0A4
:1010A2008FEF9FEF2CC022FF16C04781508525810C
:1010B20036814217530744F4A081B1819D012F5F0D
:1010C2003F4F318320838C93278130852F5F3F4FA1
:1010D2003087278314C08B01EC01FB010184F28568
:1010E200E02D1995892BE1F6D80117968D919C91E7
:1010F2001897019618969C938E931797CE01DF91BD
:08110200CF911F910F91089598
:10110A0057FD9058440F551F59F05F3F71F04795AE
:10111A00880F97FB991F61F09F3F79F08795089593
:10112A00121613061406551FF2CF4695F1DF08C0B2
:10113A00161617061806991FF1CF869571056105CF
:04114A000894089568
:10114E00CF92DF92EF926B01E82E9A01A82FCB017E
:10115E002115310531F48C199D09EF90DF90CF9058
:10116E000895FC015A2F0E944C096623A1F30196A3
:08117E00A11D21503109ECCF45
:10118600ECE7F0E0908110829081892B8083EAE77A
:10119600F0E080818064808380917A0086FDFCCFB8
:0A11A600809178009091790008957F
:1011B000CF93DF93CDB7DEB79E012A5F3F4FF90192
:1011C0004191519161919F0180910202909103029E
:0A11D0000E944901DF91CF910895BC
:1011DA001092C50087E68093C400E0ECF0E08081BD
:1011EA008D7F808386E08093C20088E18093C1006E
:0211FA00089556
:1011FC00092E0394000C11F4882352F0BB0F40F419
:10120C00BF2B11F460FF04C06F5F7F4F8F4F9F4F58
:02121C00089533
:10121E00CF93C82F8A3019F48DE00E940F09809168
:0E122E00C00085FFFCCFC093C600CF9108958D
:10123C00E0E0F2E085E192E09383828386E092E045
:06124C00918380830895E8
:0E1252008091C0008823E4F78091C6000895C3
:0E1260005058BB27AA270E9447070C94FE088F
:0E126E0000240A94161617061806090608959D
:0E127C0000240A94121613061406050608959F
:0E128A00E894BB2766277727CB0197F90895D4
:0E12980057FD03C05BBF679108956081089504
:0C12A60097F99F6780E870E060E0089511
:0812B2000E946E060C94FE0878
:0812BA000E94DD060C94FE0801
:0612C2009FEF80EC08958F
:0412C8000C94000082
:0F12CC00000000000100000000000029090000E0
:0F12DB000000000002000000000F0900000000EA
:00000001FF
