S00E0000534D50524F332E7372656352
S11300001DC100003BC1000039C1000037C1000020
S113001035C100000C9459090C9470092FC10000DB
S11300202DC100002BC1000029C100000C94AB0BB2
S113003025C1000023C1000021C100001FC1000030
S11300401DC100001BC1000019C1000017C1000040
S11300500C94530B13C1000011C100000FC1000028
S11300600DC100000BC1000009C1000007C1000060
S113007005C100000C94A40801C10000FFC00000E9
S1130080FDC000000C946A0BF9C000000C948A0BAC
S1130090F5C00000F3C00000F1C00000EFC0000094
S11300A0EDC00000EBC00000E9C00000E7C00000A4
S11300B0E5C000000C94570AE1C00000DFC0000056
S11300C0DDC00000DBC00000D9C00000D7C00000C4
S11300D0D5C00000D3C00000D1C00000CFC00000D4
S11300E0CDC000001F0AFC09010A060A0B0A100A07
S11300F0150A1A0A072C7AA5BA6CC590DA3B9365DF
S1130100FC8BBC53F810FD3C5692834DBD879D3A41
S1130110B63DCBC9BF5BBE73DA0FC93F05A84CCD52
S1130120B2D44EB93836A9020C50B9918688083C2D
S1130130A6AAAA2ABE000000803F6E616E00696E06
S1130140660000407A10F35A00A0724E180900109D
S1130150A5D4E80000E87648170000E40B54020038
S113016000CA9A3B000000E1F50500008096980063
S1130170000040420F000000A0860100000010278C
S113018000000000E803000000006400000000001C
S11301900A00000000000100000000002C76D8884E
S11301A0DC674F0823DFC1DFAE59E1B1B796E5E361
S11301B0E453C63AE651997696E8E6C28426EB897A
S11301C08C9B62ED407C6FFCEFBC9C9F40F2BAA517
S11301D06FA5F490055A2AF75C936B6CF9676DC1AF
S11301E01BFCE0E40D47FEF520E6B500D0ED902EB3
S11301F00300943577050080841E080000204E0A11
S1130200000000C80C333333330F986E128311414E
S1130210EF8D2114893BE65516CFFEE6DB18D18419
S11302204B381BF77C1D901DA4BBE4242032847240
S11302305E228100C9F124ECA1E53D2711241FBEF3
S1130240CFEFD1E2DEBFCDBF00E00CBF12E0A0E0F3
S1130250B2E0EAE3FAE200E00BBF02C007900D92BD
S1130260AC33B107D9F722E0ACE3B2E001C01D9290
S1130270A33BB207E1F71AD60C941B15C1CE992300
S113028024F5813020EF920774F481E090EF90938D
S11302904D0280934C0240E050E060E070E182E067
S11302A00E94DC090DC090934D0280934C024427B8
S11302B05527481B590B60E070E082E00E94DC097E
S11302C062E082E00C94A3090895811520E192076D
S11302D074F08FEF9FE090934D0280934C0240E0C6
S11302E050E060E070E182E00E94DC090AC0909373
S11302F04D0280934C02AC0160E070E082E00E9409
S1130300DC0961E082E00C94A309089599231CF5AB
S1130310813020EF920774F481E090EF90934B02C8
S113032080934A0240E050E060E070E184E00E9483
S1130330DC090DC090934B0280934A024427552751
S1130340481B590B60E070E084E00E94DC0962E025
S113035084E0F9C70895811520E1920774F08FEFC6
S11303609FE090934B0280934A0240E050E060E0AB
S113037070E184E00E94DC090AC090934B028093F0
S11303804A02AC0160E070E084E00E94DC0961E0B4
S113039084E0D9C708954F925F926F927F928F92B3
S11303A09F92AF92BF92CF92DF92EF92FF920F9300
S11303B01F93CF93DF936B017C0110925102109233
S11303C0500210924F0210924E0220E030E0A90138
S11303D00E944F0D882314F011E001C01FEF24EA9E
S11303E030E74DE75EE3C701B6010E941E0F6B01C3
S11303F07C01612F012E000C770B880B990B0E9456
S1130400F10D4B015C019B01AC01C701B6010E94D7
S11304101E0F20E030E040E85FE30E94EA0C0E94F7
S1130420BE0DEB01E12E110FFF0888EE93E09C0155
S1130430E29EC001E39E900DF29E900D11241FDFF9
S113044088E19CEFFC01EE9EC001EF9E900DFE9EA4
S1130450900D11245BDF21E026C080914E02909123
S11304604F028C179D07FCF080E090E04FDF80E0A6
S113047090E005DF20914E0230914F0280915002AE
S1130480909151023F932F939F938F9383E292E035
S11304909F938F930E94AA1420E00F900F900F90C7
S11304A00F900F900F902111D8CF20914E023091D0
S11304B04F0280915002909151023F932F939F934A
S11304C08F938EE192E09F938F930E94AA14609180
S11304D04E0270914F02072E000C880B990B0E945C
S11304E0F10D24E734E249E850E40E941E0F9B0119
S11304F0AC01C501B4010E941E0F2091530230913A
S1130500540240915502509156020E94EB0C6B012B
S11305107C0160935302709354028093550290932C
S113052056020F900F900F900F900F900F9020E0B5
S113053030E044EB53E40E941A0F181684F420E0D0
S113054030E044EB53E4C701B6010E94EA0C609327
S11305505302709354028093550290935602C090B4
S11305605302D0905402E0905502F090560220E0DD
S113057030E0A901C701B6010E944F0D882384F41D
S113058020E030E044EB53E4C701B6010E94EB0CD9
S113059060935302709354028093550290935602D1
S11305A0C0905302D0905402E0905502F09056024D
S11305B0C701B601905820E030E044E353E40E94C0
S11305C0560D2BED3FE049E450E40E941E0F2BED45
S11305D03FE049EC5FE30E94EB0C4B015C010FE64A
S11305E012E0F80140805180628073800E94530DB4
S11305F09B01AC01C301B2010E94EB0CC3E6D2E043
S1130600688379838A839B83F8014480558066805C
S11306107780C501B4010E94810F9B01AC01C30125
S1130620B2010E94EB0C6C837D838E839F83FF92C7
S1130630EF92DF92CF928EE292E09F938F930E948B
S1130640AA140F900F900F900F900F900F90DF91BE
S1130650CF911F910F91FF90EF90DF90CF90BF90BB
S1130660AF909F908F907F906F905F904F90089580
S11306704F925F926F927F928F929F92AF92BF92AE
S1130680CF92DF92EF92FF920F931F93CF93DF935A
S1130690CDB7DEB729970FB6F894DEBF0FBECDBF36
S11306A08C01A3E6B2E08D909D90AD90BC90FC01CE
S11306B04480558066807780A3019201C501B4010E
S11306C00E941E0F69837A838B839C83C090670288
S11306D0D0906802E0906902F0906A02D8018D918E
S11306E09D910D90BC91A02D8D839E83AF83B8877F
S11306F09C01AD01C701B6010E941E0F9B01AC0114
S113070069817A818B819C810E94EA0C20E030E02F
S1130710A9010E941A0F18161CF0B1E0B98702C093
S1130720EFEFE9872D813E814F815885C501B401E2
S11307300E941E0F69837A838B839C83A701960191
S1130740C301B2010E941E0F9B01AC0169817A8131
S11307508B819C810E94EB0C69837A838B839C83BD
S1130760A5019401C501B4010E941E0F4B015C0157
S1130770A7019601C701B6010E941E0F9B01AC019F
S1130780C501B4010E94EB0C0E948B0F6B017C012C
S11307902D813E814F815885CA01B9010E941E0FE7
S11307A04B015C01A3019201C301B2010E941E0F1F
S11307B09B01AC01C501B4010E94EB0C0E948B0F9C
S11307C09B01AC01C701B6010E941E0F9B01AC0145
S11307D069817A818B819C810E94560D6B017C0119
S11307E024EA30E74DE75FE30E944F0D8823FCF4D1
S11307F0C701B6010E94DC0C2BED3FE049E450E454
S11308000E94560D20E030E044E353E40E941E0FA2
S11308106B017C01F9856F2FFF0F770B880B990B08
S11308200E94F10DA70196010E941E0FB4DD2996C6
S11308300FB6F894DEBF0FBECDBFDF91CF911F91ED
S11308400F91FF90EF90DF90CF90BF90AF909F906B
S11308508F907F906F905F904F9008958F929F92AA
S1130860AF92BF92CF92DF92EF92FF920F931F93BA
S1130870CF93DF93EC0110924F0210924E0210922C
S113088051021092500288EE93E0F9DC88EE93E076
S11308903DDD11E07AC020915002309151028091E7
S11308A04E0290914F0282179307F4F480913C0218
S11308B090913D0218161906BCF080914C0290915B
S11308C04D02883E23E092073CF480914A029091C5
S11308D04B0201961BDD02C00197D1DC88EC90E04D
S11308E090933D0280933C0220915002309151023A
S11308F080914E0290914F0228173907F4F48091A9
S11309003C0290913D0218161906BCF080914A02EF
S113091090914B02883EE3E09E073CF480914C02A8
S113092090914D020196ABDC02C00197EFDC88EC9C
S113093090E090933D0280933C0280914E0290910E
S11309404F0206971CF080E090E0E0DC80915002BA
S11309509091510206971CF080E090E090DC809129
S11309604A0290914B02892B39F480914C02909168
S11309704D02892B09F410E080913C0290913D02D4
S1130980019790933D0280933C02111184CF6091B2
S11309904E0270914F02072E000C880B990B0E9497
S11309A0F10D21E136E344EB5FE30E941E0F6B017E
S11309B07C0103E612E0F8012081318142815381F8
S11309C00E941E0F4B015C01F80124813581468190
S11309D05781C701B6010E941E0F6B017C01F2E032
S11309E0C737DF0791F107E712E0F80160817181F1
S11309F082819381A5019401EDD7F801608371830D
S1130A00828393836481758186819781A70196018E
S1130A10E1D7F8016483758386839783688179813C
S1130A208A819B81A5019401D5D7688379838A83C0
S1130A309B836C817D818E819F81A7019601CAD79A
S1130A406C837D838E839F8318C0C7E7D2E068815F
S1130A5079818A819B81A5019401BCD768837983BC
S1130A608A839B836C817D818E819F81A7019601FE
S1130A70B1D76C837D838E839F83DF91CF911F9148
S1130A800F91FF90EF90DF90CF90BF90AF909F9029
S1130A908F900895CF93DF93EC01EADDCE01DEDE83
S1130AA0DF91CF9108954F925F926F927F928F92D0
S1130AB09F92AF92BF92CF92DF92EF92FF920F93E9
S1130AC01F93CF93DF93CDB7DEB7A0970FB6F894FB
S1130AD0DEBF0FBECDBF298B3A8B4B8B5C8B6D8BEE
S1130AE07E8B8F8B988FED8EFE8E0F8F18A3CD8803
S1130AF0DE88EF88F88C49885A886B887C88530193
S1130B004201B7FAB094B7F8B094A7019601C701AF
S1130B10B6010E941E0F698F7A8F8B8F9C8FA5015F
S1130B209401C501B4010E941E0F9B01AC01698DA3
S1130B307A8D8B8D9C8D4FD70E948B0F698F7A8F06
S1130B408B8F9C8F9B01AC01C701B601AFD72D8D54
S1130B503E8D4F8D58A10E941E0F9B01AC01C30115
S1130B60B20139D72B013C01298D3A8D4B8D5C8D17
S1130B70C501B4019BD79B01AC016D8D7E8D8F8D1A
S1130B8098A10E941E0F9B01AC01C701B60123D797
S1130B9049865A866B867C866D877E878F87988B7D
S1130BA088E0FE013996DE01119601900D928A9536
S1130BB0E1F729813A814B815C816D817E818F814E
S1130BC09885A0960FB6F894DEBF0FBECDBFDF9117
S1130BD0CF911F910F91FF90EF90DF90CF90BF9036
S1130BE0AF909F908F907F906F905F904F900895FB
S1130BF00F931F9370E0660F771F50E0440F551F4B
S1130C00440F551F30E0220F331F220F331F220FD2
S1130C10331F90E1099F80011124862B482B242B3C
S1130C20202B28B91F910F910895EF92FF920F93F3
S1130C301F93CF93DF93CDB7DEB728970FB6F89401
S1130C40DEBF0FBECDBF84E090E040D68C0180E0D3
S1130C5090E03CD69801275131092131310598F4AF
S1130C6000E020E040E061E081E0C2DF88E0E3E60C
S1130C70F2E0DE01119601900D928A95E1F7CE0122
S1130C80019608DF95C04E9734F460E070E084E389
S1130C9092E481DB8DC0053611059CF100E021E072
S1130CA041E061E081E0A4DF88E0E3E6F2E0AFE761
S1130CB0B2E001900D928A95E1F70FE712E0F80196
S1130CC0608171818281938120E030E040EA51E4C7
S1130CD00E941E0FF8016083718382839383648171
S1130CE075818681978120E030E040EA51E40E94DA
S1130CF01E0FF801648375838683978310925202D2
S1130D0057C0063111054CF500E020E040E060E0FA
S1130D1081E06EDF1AE9E12E19E9F12E09E11EE303
S1130D202091630230916402409165025091660201
S1130D3060916702709168028091690290916A02E1
S1130D40B2DE29833A834B835C836D837E838F83F6
S1130D509887CE0101969EDE2BC00932110544F11D
S1130D6000E020E040E061E080E042DF1AE9E12EAB
S1130D7019E9F12E09E11EEB20916302309164021E
S1130D804091650250916602609167027091680219
S1130D908091690290916A0286DE29833A834B83AB
S1130DA05C836D837E838F839887CE01019672DE88
S1130DB028960FB6F894DEBF0FBECDBFDF91CF915A
S1130DC01F910F91FF90EF900895CF92DF92EF92D1
S1130DD0FF92CF93DF93CDB7DEB728970FB6F89481
S1130DE0DEBF0FBECDBF29833A834B835C836D8303
S1130DF07E838F839887C980DA80EB80FC8020E033
S1130E0030E040EA50ECC701B6010E941A0F1816F0
S1130E100CF520E030E040EA50E4C701B6013FD6CB
S1130E208823D4F4CD80DE80EF80F88420E030E0A5
S1130E3040EA50ECC701B601FDD718167CF420E057
S1130E4030E040EA50E4C701B60129D6882344F0D3
S1130E5080E007C080E005C080E003C080E001C0FE
S1130E6081E028960FB6F894DEBF0FBECDBFDF91A8
S1130E70CF91FF90EF90DF90CF90089583E090E0C2
S1130E8025D58135910564F082E090E01FD5459722
S1130E904CF080E090E01AD5459734F081E0089555
S1130EA080E0089580E0089580E0089597D3BBD34F
S1130EB08DB18F7C8DB98EB18F7C8EB98FE187B95E
S1130EC018B8EAE6F0E09081936090839DB3906156
S1130ED09DBB90819C6090839DB390629DBB80BBC1
S1130EE011BA9FEF97B988B910927C0010927B00D9
S1130EF08FEC80937A00EEE7F0E080818066808357
S1130F0078943ED54ED586E392E09F938F930E94CA
S1130F10AA141ED38EE1AAD2EFE6F2E01082118267
S1130F20128213821482158216821782E7E7F2E096
S1130F3080E090E0A8ECB2EC80839183A283B38339
S1130F4080E090E0A8E4B3E484839583A683B78328
S1130F50E3E6F2E0108211821282138280E090E0D4
S1130F60A0E8BFE384839583A683B78310925302DA
S1130F701092540210925502109256022FEF89E6F5
S1130F8098E1215080409040E1F700C000000F90AC
S1130F900F9080915202882311F047DE7EC0209189
S1130FA07702309178024091790250917A026091EF
S1130FB07B0270917C0280917D0290917E0205DF1C
S1130FC081116BC020917F02309180024091810297
S1130FD05091820260918302709184028091850213
S1130FE090918602F2DE882351F0EFE7F2E010825E
S1130FF011821282138214821582168217826091E2
S11310007F0270918002809181029091820220E09F
S113101030E0A90144D5811127C060918302709109
S11310208402809185029091860220E030E0A9013B
S113103036D5811119C001E020E040E060E0D8DD40
S113104087E792E015DB1ADF882321F087E792E037
S113105021DD23C060E070E086E992E49CD981E060
S113106080935202E2DD19C001E021E040E060E03B
S113107080E0BEDD8FE792E0FBDA00DF882321F019
S11310808FE792E007DD09C060E070E086E992E452
S113109082D981E080935202C8DD60913E02709152
S11310A03F02809140029091410226E636E646EEE8
S11310B05FE3C0D6181614F48EEF88B960913E022F
S11310C070913F02809140029091410226E636E6FB
S11310D046E650E4AFD6181614F48CEF88B9609144
S11310E03E0270913F0280914002909141022DECAA
S11310F03CEC4CEA50E49ED6181614F488EF88B9F8
S113110060913E0270913F028091400290914102B1
S113111026E636E646EE50E48DD6181614F480EF33
S113112088B960913E0270913F0280914002909193
S1131130410220E030E040E151E47CD618160CF086
S113114028CF80EE88B925CF1F920F920FB60F9249
S113115011240BB60F922F933F934F935F936F938A
S11311607F938F939F93AF93BF93EF93FF93CF930B
S1131170DF93CDB7DEB72A97DEBFCDBF809178006D
S1131180909179009A838983CDD120914602309140
S1131190470240914802509149021CD46B837C83DE
S11311A08D839E83BFD160934602709347028093E0
S11311B048029093490269817A8180E090E00FD5DA
S11311C020E030E44CE950E439D66F83788789878E
S11311D09A876F81788589859A8520E030E04AE78F
S11311E054E464D426E031E845E95DE3F4D32BE824
S11311F03CE647EE5EE35AD46093420270934302A6
S1131200809344029093450260914202709143029C
S113121080914402909145022B813C814D815E81F5
S11312200DD620E030E04AE754E440D420E030E03A
S113123040E752E43BD420E030E040E752E436D4C7
S113124020913E0230913F02409140025091410270
S1131250C2D360933E0270933F0280934002909306
S11312604102ECE7F0E08081807F808380818660AA
S11312708083EAE7F0E08081806480832A960FB659
S1131280F894DEBF0FBECDBFDF91CF91FF91EF91F8
S1131290BF91AF919F918F917F916F915F914F918A
S11312A03F912F910F900BBE0F900FBE0F901F9088
S11312B018951F920F920FB60F9211248F939F933C
S11312C080914E0290914F02019690934F02809329
S11312D04E029F918F910F900FBE0F901F90189503
S11312E01F920F920FB60F9211248F939F938091A8
S11312F050029091510201969093510280935002B2
S11313009F918F910F900FBE0F901F901895CF93C0
S1131310DF93D82FC62F80EC21D18D2F4DD1C11151
S113132006C080E049D180E047D180E145D1C13099
S113133031F480E141D180E03FD180E03DD134D12E
S1131340DF91CF910895CF93823059F018F4813012
S113135089F004C0833041F0843049F0C0E080E07B
S11313600BC0C7E383E308C0C3E187E105C0CFE155
S11313708BE102C0CBE28FE2623029F0633079F076
S1131380613099F406C060E0C2DF61E08C2FBFDFFA
S113139011C061E0BCDF60E08C2FB9DF0BC061E0FD
S11313A0B6DF61E08C2FB3DF05C060E0B0DF60E042
S11313B08C2FADDFCF910895FF920F931F93CF939E
S11313C0DF938B01EA016115704110F000E010E039
S11313D0C11590E1D90710F0C0E0D0E090E0FC0125
S11313E03197E830F10530F48827EE58FF4F8F4FDE
S11313F00C947813F12C27C00F2EFAE3FF2EF02D56
S113140022C00F2EFEE0FF2EF02D1DC00F2EF2E2A3
S1131410FF2EF02D18C00F2EF6E0FF2EF02D13C076
S11314200F2EFAE0FF2EF02D0EC00F2EFEE3FF2E3E
S1131430F02D09C00F2EF2E4FF2EF02D04C00F2E64
S1131440F6E2FF2EF02D80EC89D08F2DB5D0802FC1
S1131450B3D0812FB1D08C2FAFD08D2FADD0A4D0ED
S1131460DF91CF911F910F91FF900895CF93C82FD3
S113147080EC74D080E0A0D080E39ED095D080EC46
S11314806DD08EEF99D08C2F97D08ED080EC66D013
S113149080E092D080E290D087D0CF91089585E00B
S11314A08093A10081E080937200789408951F9244
S11314B00F920FB60F9211240BB60F922F933F93F6
S11314C04F935F936F937F938F939F93AF93BF9348
S11314D0EF93FF9360918B0270918C0280918D0247
S11314E090918E022CEE31E143E855E474D260937E
S11314F08B0270938C0280938D0290938E02FF91E5
S1131500EF91BF91AF919F918F917F916F915F9177
S11315104F913F912F910F900BBE0F900FBE0F90E4
S11315201F9018956091A4007091A50080E090E050
S113153056D32FE632E143E85DE380D420918B0259
S113154030918C0240918D0250918E0244C20895D4
S11315501092B90088E48093B800089594EA9093B7
S1131560BC009091BC009923E4F79091B900987F56
S1131570983011F0903191F48093BB0084E880930B
S1131580BC008091BC008823E4F78091B900887F77
S1131590883131F0803431F480E0089581E0089599
S11315A080E0089581E0089584E98093BC008091EF
S11315B0BC0084FDFCCF08958093BB0084E8809335
S11315C0BC008091BC008823E4F78091B900887F37
S11315D0883211F081E0089580E0089580B38F612E
S11315E080BB81B3807E81BB2FEF81EE94E02150DC
S11315F080409040E1F700C0000083E080939000B9
S11316008BE18093910081E6809399009AEA90930C
S1131610980080939B0087EA80939A0085E08093EA
S1131620710078940895E7E0F1E08081807F808301
S1131630E8E0F1E08081807F808374DF20E030E0A7
S1131640A9012DD2811101C02ADF80E090E010C0F1
S1131650FC01EE0FFF1FE80FF91FEE0FFF1FE1570C
S1131660FD4F118210821282138214821582019618
S1131670853091056CF381E080936F008FE1809356
S11316806D00E8E6F0E08081846080837894EAE08D
S1131690F1E0808181608083EBE0F1E080818E7FE6
S11316A08083789408951F920F920FB60F9211249D
S11316B08F939F9380915802909159020196909331
S11316C05902809358029F918F910F900FBE0F90F3
S11316D01F9018951F920F920FB60F9211242F93FB
S11316E08F939F9380915C0290915D028093570247
S11316F02091570281E090E002C0880F991F2A953B
S1131700E2F781BB9F918F912F910F900FBE0F90A5
S11317101F9018951F920F920FB60F92112411BAB1
S11317200F900FBE0F901F901895F894109285009B
S1131730109284008091010280938100789408952E
S1131740F89480915E02809381008091840090914E
S11317508500789408951F920F920FB60F9211246A
S11317600BB60F922F933F934F935F936F937F9397
S11317708F939F93AF93BF93CF93DF93EF93FF9395
S1131780EBE0F1E08081816080838091060181112A
S113179048C0C0915C02D0915D02D2DF9E01220F4D
S11317A0331FC20FD31FCC0FDD1FC157DD4F9983E9
S11317B08883C0915C02D0915D02B4DE9E01220F49
S11317C0331FC20FD31FCC0FDD1FC157DD4F6A83F8
S11317D07B838C839D8380910002809100028530FD
S11317E0A8F080915C0290915D02019690935D0255
S11317F080935C0280915C0290915D0205970CF4E9
S11318004BC010925D0210925C0246C080910002AF
S113181090E090935D0280935C028FEF80930002CE
S11318203BC09091810080915E02981749F08091AD
S1131830580290915902019690935902809358024C
S113184074DF80910601843069F028F4813041F01E
S1131850823081F00DC0883039F0803139F008C011
S113186080E009C082E007C083E005C084E003C0D3
S11318708FEF01C081E090E020915C0230915D0225
S11318808217930749F080915A0290915B02019666
S113189090935B0280935A02EBE0F1E080818E7FAB
S11318A08083FF91EF91DF91CF91BF91AF919F9191
S11318B08F917F916F915F914F913F912F910F90F5
S11318C00BBE0F900FBE0F901F901895CF93DF9310
S11318D0EC0128DEFE01EE0FFF1FEC0FFD1FEE0FE3
S11318E0FF1FE157FD4F228133814481558172D01E
S11318F020E030E04AEF53E49DD21816F4F4FE01E0
S1131900EE0FFF1FEC0FFD1FEE0FFF1FE157FD4F02
S113191020813181C0930002FE01EE0FFF1FEC0F06
S1131920FD1FEE0FFF1FE157FD4F808191812817A6
S1131930390791F3808191810BC0CE01880F991FE3
S1131940C80FD91FCC0FDD1FC157DD4F8881998186
S1131950DF91CF910895CF93C82F8A3011F48DE091
S1131960FADF8091C00085FFFCCFC093C600CF9101
S113197008958091C0008823E4F78091C6000895FB
S11319801092C50087E68093C400E0ECF0E080810B
S11319908D7F808386E08093C20088E18093C100BC
S11319A00895EDEAF2E080E192E09383828382E09D
S11319B092E09183808308959F939F774DD10F90F8
S11319C000203AF49058A2EA2AED3FE049E450E4BA
S11319D013D0E5C15058BB27AA270ED0E0C1A9D126
S11319E030F0AED120F031F49F3F11F41EF479C1F0
S11319F00EF4E095E7FB6FC1E92FF3D180F3BA173A
S1131A00620773078407950718F071F49EF50BC2FB
S1131A100EF4E0950B2EBA2FA02D0B01B901900105
S1131A200C01CA01A0011124FF27591B99F0593F49
S1131A3050F4503E68F11A16F040A22F232F342F91
S1131A404427585FF3CF469537952795A795F040DF
S1131A505395C9F77EF41F16BA0B620B730B840BF4
S1131A60BAF09150A1F0FF0FBB1F661F771F881FAC
S1131A70C2F70EC0BA0F621F731F841F48F4879504
S1131A8077956795B795F7959E3F08F0B3CF9395F3
S1131A90880F08F09927EE0F979587950895F7D04A
S1131AA008F481E0089554D1E3958AC10CD077C13C
S1131AB047D140F03ED130F021F45F3F19F00BC123
S1131AC05111B2C10EC18DD198F39923C9F3552395
S1131AD0B1F3951B550BBB27AA276217730784071D
S1131AE038F09F5F5F4F220F331F441FAA1FA9F3D3
S1131AF033D00E2E3AF0E0E830D091505040E695C5
S1131B00001CCAF729D0FE2F27D0660F771F881F25
S1131B10BB1F261737074807AB07B0E809F0BB0B14
S1131B20802DBF01FF2793585F4F2AF09E3F510538
S1131B3068F0D1C079C15F3FECF3983EDCF3869541
S1131B4077956795B795F7959F5FC9F7880F911DAE
S1131B509695879597F90895E1E0660F771F881F9A
S1131B60BB1F621773078407BA0720F0621B730B4D
S1131B70840BBA0BEE1F88F7E095089504D068949F
S1131B80B11152C1089535D188F09F5790F0B92F03
S1131B909927B751A0F0D1F0660F771F881F991FBE
S1131BA01AF0BA95C9F712C0B13081F03CD1B1E056
S1131BB0089539C1672F782F8827B85F39F0B93F66
S1131BC0CCF3869577956795B395D9F73EF49095C0
S1131BD08095709561957F4F8F4F9F4F0895E8943E
S1131BE009C097FB3EF490958095709561957F4F61
S1131BF08F4F9F4F9923A9F0F92F96E9BB2793950F
S1131C00F695879577956795B795F111F8CFFAF41E
S1131C10BB0F11F460FF1BC06F5F7F4F8F4F9F4F4F
S1131C2016C0882311F096E911C0772321F09EE8AD
S1131C30872F762F05C0662371F096E8862F70E013
S1131C4060E02AF09A95660F771F881FDAF7880FED
S1131C509695879597F90895DF93CF931F930F93E4
S1131C608B01EC01E4EFF0E03FD099D09801AE0194
S1131C708B01EC0160E070E080E89FE3ABDE4BD1C8
S1131C809801AE010F911F91CF91DF91E3C0990F9D
S1131C900008550FAA0BE0E8FEEF16161706E80732
S1131CA0F907C0F012161306E407F50798F0621B53
S1131CB0730B840B950B39F40A2661F0232B242B28
S1131CC0252B21F408950A2609F4A140A6958FEF47
S1131CD0811D811D089597F99F6780E870E060E099
S1131CE008959FEF80EC0895DF93CF931F930F9394
S1131CF0FF92EF92DF927B018C01689405C0DA2E8B
S1131D00EF01A8D0FE01E894A59125913591459164
S1131D105591AEF3EF0170DEFE019701A801DA944C
S1131D2079F7DF90EF90FF900F911F91CF91DF91A2
S1131D30089500240A94161617061806090608952D
S1131D4000240A9412161306140605060895C9CF32
S1131D5050D0E8F3E894E0E0BB279F57F0F02AED79
S1131D603FE049EC06C0EE0FBB0F661F771F881FCC
S1131D7028F0B23A62077307840728F0B25A620B5C
S1131D80730B840BE3959A9572F7803830F49A9527
S1131D90BB0F661F771F881FD2F79048FCC0092E1F
S1131DA00394000C11F4882352F0BB0F40F4BF2BB2
S1131DB011F460FF04C06F5F7F4F8F4F9F4F0895F2
S1131DC0EF93E0FF06C0A2EA2AED3FE049EC5FEBA7
S1131DD013DEE5DF0F90039401FC9058ECE1F1E091
S1131DE0EDC057FD9058440F551F59F05F3F71F0F7
S1131DF04795880F97FB991F61F09F3F79F087956E
S1131E000895121613061406551FF2CF4695F1DFF6
S1131E1008C0161617061806991FF1CF8695710586
S1131E20610508940895E894BB2766277727CB01BA
S1131E3097F908952CDF08F48FEF08950BD0AFCFF6
S1131E4078DF28F07DDF18F0952309F044CF49CFDF
S1131E501124EACFC6DFA0F3959FD1F3950F50E08C
S1131E60551F629FF001729FBB27F00DB11D639F48
S1131E70AA27F00DB11DAA1F649F6627B00DA11DEE
S1131E80661F829F2227B00DA11D621F739FB00D94
S1131E90A11D621F839FA00D611D221F749F332704
S1131EA0A00D611D231F849F600D211D822F762F9D
S1131EB06A2F11249F5750408AF0E1F088234AF09A
S1131EC0EE0FFF1FBB1F661F771F881F91505040E6
S1131ED0A9F79E3F510570F0FECEA6CF5F3FECF30D
S1131EE0983EDCF3869577956795B795F795E795D2
S1131EF09F5FC1F7FE2B880F911D9695879597F9E3
S1131F0008959F9325DF0F9007FCEE5F59CF11F4DE
S1131F100EF4E7CE3EC06DDFD0F39923D9F3CEF3B0
S1131F209F57550B87FF43D00024A0E640EA900159
S1131F3080585695979528F4805C660F771F881F04
S1131F4020F026173707480730F4621B730B840B05
S1131F50202931294A2BA695179407942025312549
S1131F604A2758F7660F771F881F20F02617370770
S1131F70480730F4620B730B840B200D311D411D97
S1131F80A09581F7B901842F9158880F969587956C
S1131F9008959F3F31F0915020F487957795679588
S1131FA0B795880F911D9695879597F90895915047
S1131FB05040660F771F881FD2F708959F938F9321
S1131FC07F936F93FF93EF939B01AC0137DFEF9106
S1131FD0FF918ADE2F913F914F915F912FCF2F92E6
S1131FE03F924F925F926F927F928F929F92AF92A5
S1131FF0BF92CF92DF92EF92FF920F931F93CF93F2
S1132000DF93CDB7DEB760970FB6F894DEBF0FBE8F
S1132010CDBF7C011B016A01FC01178216828381FA
S113202081FF2AC39E012F5F3F4F3901F70193813E
S1132030F10193FD859193FF81911F01882309F498
S113204017C3853239F493FD859193FF81911F0164
S1132050853231F4B70190E041D456016501E6CFF1
S113206010E0512C912CFFE1F915D8F08B3279F066
S113207038F4803279F08332A1F4F92DF0612EC066
S11320808D3261F0803369F4292D21602DC0392D02
S11320903260932E892D8460982E2AC0E92DE86041
S11320A015C097FC2DC020ED280F2A3088F496FE29
S11320B006C03AE0139F200D1124122F19C08AE0A4
S11320C0589E200D1124522EE92DE0629E2E10C040
S11320D08E3231F496FCCCC2F92DF0649F2E08C0E8
S11320E08C3621F4292D2068922E02C0883641F4C2
S11320F0F10193FD859193FF81911F018111B3CF6C
S11321009BEB980F933020F4992D9061805E07C06B
S11321109BE9980F933008F059C1992D9F7E96FF43
S113212016E09F73992E853619F49064992E08C091
S1132130863621F4392F3068932E02C011111150C4
S113214097FE07C01C3350F444244394410E27E007
S11321500BC0183038F027E017E005C027E09CE3F7
S1132160492E02C0212F412C560184E0A80EB11C37
S1132170F6016081718182819381042DA301C0D213
S11321806C01F981FC87F0FF02C0F3FF06C091FCEB
S113219006C092FE06C000E205C00DE203C00BE2D9
S11321A001C000E08C858C7019F0011143C280C21B
S11321B097FE10C04C0CFC85F4FF04C08A81813367
S11321C009F44A94141474F528E0241578F588E089
S11321D0482E2CC096FC2AC0812F90E08C159D05BA
S11321E09CF03CEFC3163FEFD30674F0892D806852
S11321F0982E0AC0E2E0F0E0EC0FFD1FE10FF11DA4
S11322008081803319F411501111F4CF97FE0EC060
S113221044244394410E812F90E0C816D9062CF42F
S11322201C1904C04424439401C010E097FE06C066
S11322301C141D0434F4C601019605C085E090E029
S113224002C081E090E001110196112331F0212FA9
S113225030E02F5F3F4F820F931F252D30E0821710
S1132260930714F4581A01C0512C892D897041F434
S1132270552031F0B70180E290E030D35A94F8CF82
S1132280002321F0B701802F90E028D393FC08C0ED
S1132290552031F0B70180E390E020D35A94F8CF71
S11322A097FE4AC04601D7FE02C0812C912CC6017C
S11322B088199909F301E80FF91FFE87ED87960144
S11322C024193109388B2F87012F10E011950195BE
S11322D011093FEF8316930621F4B7018EE290E0D3
S11322E0FDD2C814D9044CF08F85988988159905B6
S11322F024F4ED85FE85818101C080E3F1E08F1A2D
S113230091082D853E852F5F3F4F3E872D87801690
S1132310910624F0B70190E0E1D2DBCFC814D904D0
S113232041F49A81963320F4953319F43C8534FFB3
S113233081E3B70190E048C08A81813319F09C851C
S11323409F7E9C87B70190E0C9D2111105C094FC0F
S113235016C085E690E015C0B7018EE290E0BED2CB
S11323601E5F82E001E0080FF301E80FF11D808198
S1132370B70190E0B3D2802F0113F4CFE8CF85E406
S113238090E0B701ABD2D7FC06C0C114D10441F42C
S1132390EC85E4FF05C0D194C194D1088DE201C05D
S11323A08BE2B70190E09AD280E32AE0C216D1040E
S11323B02CF08F5FFAE0CF1AD108F7CFB70190E085
S11323C08DD2B701C601C09689D249C1833631F096
S11323D0833779F0833509F052C01FC0560132E0CB
S11323E0A30EB11CF6018081898301E010E0630132
S11323F011C05601F2E0AF0EB11CF601C080D180CD
S113240096FE03C0612F70E002C06FEF7FEFC6013C
S11324105AD28C01F92DFF7713C0560122E0A20E87
S1132420B11CF601C080D18096FE03C0612F70E01C
S113243002C06FEF7FEFC6013BD28C01F92DF0682B
S11324409F2EF3FD18C0852D90E00817190798F406
S1132450B70180E290E042D25A94F5CFF60197FC9E
S1132460859197FE81916F01B70190E037D25110A9
S11324705A94015011090115110581F7F0C08436F1
S113248011F0893659F5560197FE09C024E0A20ED1
S1132490B11CF60160817181828193810AC0F2E0EE
S11324A0AF0EB11CF60160817181072E000C880B00
S11324B0990BF92DFF769F2E97FF09C09095809573
S11324C0709561957F4F8F4F9F4FF0689F2E2AE044
S11324D030E0A30152D2C82EC6183EC0092D85375C
S11324E021F40F7E2AE030E01DC0097F8F3691F081
S11324F018F4883559F0BCC0803719F0883711F0CA
S1132500B7C0006104FF09C0046007C094FE08C09E
S1132510066006C028E030E005C020E130E002C0DB
S113252020E132E0560107FF09C084E0A80EB11C87
S1132530F601608171818281938108C0F2E0AF0E5F
S1132540B11CF6016081718180E090E0A30115D295
S1132550C82EC6180F77902E96FE0BC0092D0E7F3D
S1132560C11650F494FE0AC092FC08C0092D0E7ED8
S113257005C0DC2C092D03C0DC2C01C0D12E04FFC6
S11325800DC0FE01EC0DF11D8081803311F4097E34
S113259009C002FF06C0D394D39404C0802F867868
S11325A009F0D39403FD10C000FF06C01C2DD51400
S11325B078F4150D1D190CC0D51450F4B70180E240
S11325C090E08CD1D394F8CFD51410F45D1801C0E9
S11325D0512C04FF0FC0B70180E390E07FD102FFCC
S11325E016C001FD03C088E790E002C088E590E0D2
S11325F0B7010CC0802F867851F001FF02C08BE236
S113260001C080E207FD8DE2B70190E067D1C116F9
S113261030F4B70180E390E061D11150F8CFCA944F
S1132620F301EC0DF11D8081B70190E057D1C11089
S1132630F6CF15C0F4E0F51550F584E0581A93FE72
S11326401EC0011125C02C8523FF27C00AE311E019
S1132650392D3071932EF8018491811121C05520B8
S113266009F4FCCCB70180E290E038D15A94F7CF5A
S1132670F7018681978123C08FEF9FEF20C0B701B8
S113268080E290E02BD15A945110F9CFDACF512C3B
S1132690B701802F90E022D1D6CF0EE311E0D8CF3E
S11326A091108052B70190E019D10F5F1F4FD3CF23
S11326B023E0251510F483E0C1CF512CC4CF6096DC
S11326C00FB6F894DEBF0FBECDBFDF91CF911F913F
S11326D00F91FF90EF90DF90CF90BF90AF909F90BD
S11326E08F907F906F905F904F903F902F900895C0
S11326F0EE0FFF1F881F8BBF0790F691E02D1994F2
S1132700283008F027E03327DA01990F311D87FDBF
S1132710916000966105710539F432602E5F3D9336
S113272030E32A95E1F708959F3F30F08038710532
S1132730610509F03C5F3C5F3D93913008F080688F
S1132740911DDF93CF931F930F93FF92EF92192F55
S1132750987F9695E92F96959695E90FFF27E4566D
S1132760FE4F99273327EE24FF24A701E7010590A4
S11327700894079428F4360FE71EF81E491F511DCC
S1132780660F771F881F991F0694A1F70590079479
S113279028F4E70EF81E491F561FC11D770F881F26
S11327A0991F661F0694A1F70590079428F4F80E64
S11327B0491F561FC71FD11D880F991F661F771FFA
S11327C00694A1F70590079420F4490F561FC71FDC
S11327D0D81F990F661F771F881F0694A9F7849145
S11327E01095177041F0D695C79557954795F7946E
S11327F0E7941A95C1F7E2E4F1E068941590159115
S113280035916591959105907FE27395E118F10AF0
S1132810430B560BC90BD009C0F7E10CF11E431F43
S1132820561FC91FD01D7EF4703311F48A95E6CF6C
S1132830E894015030F0080F0AF40027021708F456
S1132840202F2395022F7A3328F079E37D932A955C
S1132850E9F710C07D932A9589F6069497956795B4
S1132860379517951794E118F10A430B560BC90BCA
S1132870D00998F023957E9173957A3308F070E32C
S11328807C932013B8F77E9170617D9330F083952B
S113289071E37D9370E32A95E1F71124EF90FF90A3
S11328A00F911F91CF91DF91992787FD90950895FE
S11328B0FC010590615070400110D8F78095909507
S11328C08E0F9F1F0895FC0161507040019001100C
S11328D0D8F7809590958E0F9F1F08950F931F939F
S11328E0CF93DF93FB01238121FD03C08FEF9FEF83
S11328F02CC022FF16C0468157812481358142179E
S1132900530744F4A081B1819D012F5F3F4F318370
S113291020838C93268137812F5F3F4F3783268313
S113292014C08B01EC01FB010084F185E02D1995A5
S1132930892BE1F6D80116968D919C9117970196F3
S113294017969C938E931697CE01DF91CF911F918A
S11329500F910895CF93DF93CDB7DEB7AE014A5FF1
S11329605F4FFA0161917191AF018091AF02909133
S1132970B00235DBDF91CF910895FA01AA27283000
S113298051F1203181F1E8946F936E7F6E5F7F4F38
S11329908F4F9F4FAF4FB1E03ED0B4E03CD0670FB4
S11329A0781F891F9A1FA11D680F791F8A1F911D07
S11329B0A11D6A0F711D811D911DA11D20D009F457
S11329C068943F912AE0269F11243019305D319399
S11329D0DEF6CF010895462F4770405D4193B3E082
S11329E00FD0C9F7F6CF462F4F70405D4A3318F029
S11329F0495D31FD4052419302D0A9F7EACFB4E0DA
S1132A00A6959795879577956795BA95C9F7009791
S1132A106105710508959B01AC010A2E0694579532
S1132A20479537952795BA95C9F7620F731F841F89
S10D2A30951FA01D0895F894FFCF30
S1132A3AFF0400000001000000000000B90C0000BF
S1132A4A0000000200000000AB0C000000006D61F1
S1132A5A783B204C3A256420523A25640A0064657E
S10F2A6A673A25660A0074657374000066
S9030000FC
